:020000040800F2
:10000000600B0020CD010008F1120008ED1200087D
:10001000EF120008F1030008D519000800000000E5
:100020000000000000000000000000006D15000846
:10003000E104000800000000131300086F15000819
:10004000E7010008E7010008E7010008E7010008F0
:10005000E7010008E7010008E7010008E7010008E0
:10006000E7010008E7010008E7010008E7010008D0
:10007000E7010008E7010008E7010008E7010008C0
:10008000E7010008E7010008E7010008E7010008B0
:10009000E7010008E7010008E7010008E7010008A0
:1000A000E7010008E7010008E7010008E701000890
:1000B000E7010008E7010008E7010008E701000880
:1000C000E7010008E7010008E7010008E701000870
:1000D000E7010008251900086D190008E70100086C
:1000E000E7010008E7010008E7010008E701000850
:1000F000E7010008E7010008E7010008E701000840
:10010000E7010008E7010008E7010008E70100082F
:10011000E7010008E7010008E7010008E70100081F
:10012000E7010008E7010008E7010008E70100080F
:1001300000F002F800F03AF80AA090E8000C8244BF
:100140008344AAF10107DA4501D100F02FF8AFF29C
:10015000090EBAE80F0013F0010F18BFFB1A43F0A5
:10016000010318476819000088190000103A24BFDD
:1001700078C878C1FAD8520724BF30C830C144BF0C
:1001800004680C607047000000230024002500264E
:10019000103A28BF78C1FBD8520728BF30C148BFEA
:1001A0000B6070471FB51FBD10B510BD00F0B8F84B
:1001B0001146FFF7F7FF01F031FC00F0EAF803B455
:1001C000FFF7F2FF03BC01F006FC0000094880477E
:1001D00009480047FEE7FEE7FEE7FEE7FEE7FEE729
:1001E000FEE7FEE7FEE7FEE704480549054A064B41
:1001F00070470000E5150008310100086005002087
:10020000600B00206007002060070020704700009E
:100210000FB4044910B503AA029800F053F810BCBB
:100220005DF814FB280000204FF000020429C0F004
:10023000128010F0030C00F01B80CCF1040CBCF118
:10024000020F18BF00F8012BA8BF20F8022BA1EB6A
:100250000C0100F00DB85FEAC17C24BF00F8012B4F
:1002600000F8012B48BF00F8012B70474FF0000247
:1002700000B5134694469646203922BFA0E80C509C
:10028000A0E80C50B1F12001BFF4F7AF090728BF77
:10029000A0E80C5048BF0CC05DF804EB890028BFF3
:1002A00040F8042B08BF704748BF20F8022B11F01C
:1002B000804F18BF00F8012B704770477047704798
:1002C00070470000074B70B50D467B4400F011F8F5
:1002D0000446284600F020F810B14FF0FF3070BD02
:1002E000204670BD3717000001694A1C026108787A
:1002F000704700B58FB0CDE9013100210591054966
:100300007944CDE903101146684600F02EF80FB08D
:1003100000BD0000E5FFFFFF007B00F0800070479C
:10032000754600F03FF8AE4605006946534620F09A
:100330000700854618B020B5FFF756FFBDE82040FE
:100340004FF000064FF000074FF000084FF0000B91
:1003500021F00701AC46ACE8C009ACE8C009ACE844
:10036000C009ACE8C0098D4670472DE9F04106464A
:100370000024D6E90170F5688046304603E0414626
:10038000B847641C3046A8470028F8D12046BDE88D
:10039000F08110B50446AFF300802046BDE8104060
:1003A000FFF70DBF00487047FC0400200E4810B551
:1003B000816986B041F00401816180690B4C00F0D5
:1003C00004000490802000900120019002900320FE
:1003D00003906946204600F08FF8002280212046D5
:1003E00000F084F906B010BD001002400008014082
:1003F000FEE770B500220E46144610B10EB1054658
:1004000009E04FF6FF7070BD295D90B201F0E4FA8B
:10041000641C02B2A4B2B442F6DB90B270BD00001C
:100420002DE9F047DFF8AC900126DFF8AC80D9F871
:100430000010B1F5004F05D088F8036098F803006C
:10044000BDE8F0872549002788F803700A7ACB7940
:1004500002EB0322824233D1A1F5D27508792871CB
:1004600088794B79444600EB0320E8802A81887A1A
:100470004A7A00EB02206881C87A28730C2003E0D6
:100480000A5C2B18401C5A70A0802A7B80B20C3268
:100490008242F5D8297B1148104A0C300D32085C95
:1004A0008A5C0C3102EB0020A5F8D6000B48FFF760
:1004B000A0FFE080B5F8D610814203D0E67001E0DD
:1004C00088F80360C8210548FFF7D0FEC9F800701E
:1004D000B4E700002000002010000020AC02002043
:1004E000704731B500F008F9044600F005F90099AD
:1004F000001B8842F9D338BD2DE9F84FDFF8BC91D5
:10050000002309F1040A0AF1040B1C464FF00F08FE
:100510000BF1040E01270A68A7403A40BA4272D193
:10052000DFF89CC14D68A5EB0C0665452BD00DDCB2
:10053000032D34D005DC35B3012D19D0022D2FD178
:100540001BE0112D16D0122D2AD119E0B6F5881F07
:1005500019D006DCB6F5803F15D0B6F5801F1FD147
:1005600011E0B6F5001F0ED0B6F5041F18D10AE051
:10057000CB6815E0CB681B1D12E0CB6808330FE099
:10058000CB680C330CE08B682BB1012B4FF00803C8
:1005900003D0476104E0042302E0076100E0002388
:1005A000FF2A01D8064601E000F104064FEA84055F
:1005B00001D9A5F12005376808FA05FC27EA0C07E0
:1005C00003FA05F547EA050737604D68ED006ED57B
:1005D0003C4DAE6946F00106AE61AD6924F00306FC
:1005E00005F001050095384D7719BE68A5072D0F58
:1005F00008FA05FC26EA0C06DFF8D0C0604503D1F6
:100600004FF0000C25E052E0DFF8C4C0604502D195
:100610004FF0010C1DE0DFF8BCC0604502D14FF087
:10062000020C16E0DFF8B0C0604502D14FF0030CB9
:100630000FE0DFF8A8C0604502D14FF0040C08E0DD
:10064000DFF89CC0604502D14FF0050C01E04FF08F
:10065000060C0CFA05FC4CEA060CC7F808C04D68FD
:10066000D9F80060ED034D4601D5164300E09643EE
:100670002E604D68DAF80060AD03554601D516438B
:1006800000E096432E604D68DBF80060ED025D46A9
:1006900001D5164300E096432E604D68DEF80060F9
:1006A000AD02754601D5164300E096432E60641CEA
:1006B000102CFFF42FAFBDE8F88F000000040140BC
:1006C000000011100010024000000140000801402D
:1006D000000C0140001001400014014000180140CE
:1006E000001C0140C2684A40C26070470AB1016103
:1006F00070470904FBE700000148006870470000EC
:100700000C00002002480168491C0160704700008D
:100710000C000020074810B5016841F0100101608D
:10072000032000F047F80F2000F006F800F015F85D
:10073000002010BD0020024010B5044600F00CF966
:100740004FF47A71B0FBF1F000F049FC0022214631
:10075000501E00F00FF8002010BD704700F01F027F
:10076000012191404009800000F1E020C0F8001113
:1007700070470000F0B40E4B1B68C3F30223C3F1B3
:100780000704042C00D904241D1D072D01D20023C9
:1007900000E0DB1E012606FA04F56D1E0D409D40AB
:1007A0009E40761E164045EA0601F0BC00F0A1BD51
:1007B0000CED00E0064A00F0070110684FF6FF0359
:1007C000184040EA012003490843106070470000C8
:1007D0000CED00E00000FA052DE9F047DFF8688134
:1007E00004460E46D8F8000000F00700B0420CD2D4
:1007F000D8F8001021F007013143C8F80010D8F8EC
:10080000000000F00700B04273D120784F4F8007FE
:1008100005D57868A16820F0F0000843786020785A
:10082000C00755D06068012201280CD0022828D0CA
:10083000022393FAA3F1B1FA81F141F020014909B1
:1008400004D0396803E04FF40033F2E7796A93FA91
:10085000A3F3B3FA83F303F01F039A40114248D085
:10086000796821F0030101437960FFF745FF0546F0
:10087000606841F2883101280CD00228894615D0E1
:1008800022E04FF00073D4E7FFF736FF411B4945E4
:1008900001D916E089467868C0F381000128F3D1B8
:1008A00016E0FFF729FF411B49450AD87868C0F3D5
:1008B00081000228F5D10BE0FFF71EFF411B4945DF
:1008C00002D90320BDE8F087786810F00C0FF3D14F
:1008D000D8F80010404601F00701B1420BD9016879
:1008E00021F0070131430160006800F00700B042C9
:1008F00001D00120E6E72078400705D57868E16857
:1009000020F4E060084378602078000706D5786816
:10091000216920F4605040EAC100786000F052F88C
:100920007968F02292FAA2F201F0F001B2FA82F2B2
:10093000D140074A515CC840064908600F20FFF7C4
:10094000FBFE0020BEE70000002002400010024035
:10095000B41A000808000020014800687047000031
:100960000800002008480949006849684FF4E0621F
:1009700092FAA2F201F4E061B2FA82F2D140044AA2
:10098000515CC84070470000080000200010024081
:10099000C41A000808480949006849684FF46052C1
:1009A00092FAA2F201F46051B2FA82F2D140044A02
:1009B000515CC84070470000080000200010024051
:1009C000C41A000810B519A085B00FC88DE80F0033
:1009D0001AA01B4B0068049059681A4801F00C02D9
:1009E000042A1DD0082A1BD14FF4701494FAA4F4E1
:1009F00001F47012B4FA84F4E240C9031DF8022035
:100A000010D559684FF4003393FAA3F301F4003181
:100A1000B3FA83F3D94004AB595CB0FBF1F0504317
:100A200005B010BD08485043FAE700000203040572
:100A3000060708090A0B0C0D0E0F1010010200002A
:100A40000010024000127A0000093D002DE9F84F25
:100A500004460078FE4EC0074FF001057FD0706855
:100A60004FF40038C0F38100012807D07068C0F34C
:100A7000810002281BD17068C00318D598FAA8F02D
:100A8000B0FA80F040F02000400901D0306800E06A
:100A9000706A98FAA8F1B1FA81F101F01F0105FA24
:100AA00001F108425BD06068002879D057E06068A7
:100AB000B0F5803F0BD010B1B0F5A02F11D0306849
:100AC00020F480303060306820F4802002E030680C
:100AD00040F480303060606818B3FFF70DFE0746C1
:100AE00009E0306840F480203060F0E7FFF704FE52
:100AF000C01B642870D898FAA8F0B0FA80F040F0D3
:100B00002000400901D0306800E0706A98FAA8F12E
:100B1000B1FA81F101F01F0105FA01F10842E5D0B7
:100B20001DE0FFF7E9FD074604E0FFF7E5FDC01B08
:100B30006428DFD898FAA8F0B0FA80F040F02000DE
:100B4000400901D0306800E0706A98FAA8F1B1FA63
:100B500081F101F01F0105FA01F10842E5D1207889
:100B6000DFF8F08280074FF0000A4FF002075AD5F5
:100B700070684FF0F80B10F00C0F07D07068C0F3DE
:100B8000810002281CD17068C00319D497FAA7F01D
:100B9000B0FA80F040F02000400902D0306801E057
:100BA0008AE0706A97FAA7F1B1FA81F101F01F01AA
:100BB00005FA01F108422BD0206901287CD127E0F9
:100BC000206988B395FAA5F0B0FA80F048F8205073
:100BD000FFF792FD814606E04DE1FFF78DFDA0EBAA
:100BE0000900022886D897FAA7F0B0FA80F040F002
:100BF0002000400901D0306800E0706A97FAA7F140
:100C0000B1FA81F101F01F0105FA01F10842E4D0C7
:100C100030689BFAABF220F0F8016069B2FA82F218
:100C200090400143316025E0FFE795FAA5F1B1FA64
:100C300081F148F821A0FFF75FFD814605E0FFF74D
:100C40005BFDA0EB09000228CCD897FAA7F0B0FA18
:100C500080F040F02000400901D0306800E0706A68
:100C600097FAA7F1B1FA81F101F01F0105FA01F13C
:100C70000842E4D1207800076DD5A069B8B395FA91
:100C8000A5F0B0FA80F008EB8000C0F88054FFF7C0
:100C900033FD814605E0FFF72FFDA0EB0900022898
:100CA000A0D897FAA7F0B0FA80F040F06000B5EB5A
:100CB000501F02D130680CE063E197FAA7F0B0FA58
:100CC00080F040F06000B7EB501F01D1306A00E0C7
:100CD000706A97FAA7F1B1FA81F101F01F0105FAE4
:100CE00001F21042D7D00120FFF7FBFB33E0FFE712
:100CF00095FAA5F1B1FA81F108EB8101C1F880A460
:100D0000FFF7FAFC814605E0FFF7F6FCA0EB0900CF
:100D1000022899D897FAA7F0B0FA80F040F0600066
:100D2000B5EB501F01D130680BE097FAA7F0B0FA8D
:100D300080F040F06000B7EB501F01D1306A00E056
:100D4000706A97FAA7F1B1FA81F101F01F0105FA73
:100D500001F21042D8D12078400763D5F06940F005
:100D60008050F061F069DFF8F0B000F08050009042
:100D7000DBF8001041F48071CBF80010FFF7BCFCE9
:100D8000814605E0FFF7B8FCA0EB0900642872D8A3
:100D9000DBF80000C005F5D5E06801280AD008B1ED
:100DA000052813D0306A20F001003062306A20F04C
:100DB000040002E0306A40F001003062E06841F275
:100DC000883B80B3FFF798FC81460AE0306A40F028
:100DD00004003062EEE7FFF78FFCA0EB09015945F4
:100DE00049D897FAA7F0B0FA80F040F04000B5EB90
:100DF000501F01D130680BE097FAA7F0B0FA80F0ED
:100E000040F04000B7EB501F01D1306A00E0706A3B
:100E100097FAA7F1B1FA81F101F01F0205FA02F188
:100E20000842D8D033E0FFE7FFF766FC814605E0D3
:100E3000FFF762FCA0EB090159451CD897FAA7F00F
:100E4000B0FA80F040F04000B5EB501F08D105E04B
:100E500000100240000042420070004030680CE088
:100E600097FAA7F0B0FA80F040F04000B7EB501FBF
:100E700002D1306A01E08AE0706A97FAA7F1B1FA0C
:100E800081F101F01F0205FA02F10842D0D1E069B8
:100E900098B37168C1F38101022972D002284FF022
:100EA00080714FF0007B50460AD091FAA1F1B1FA5F
:100EB00081F148F82100FFF71FFC04465F4669E016
:100EC0008A4691FAA1F1B1FA81F1C14648F82100B0
:100ED000FFF712FCA84607465D4604E0FFF70CFC4E
:100EE000C01B022853D895FAA5F0B0FA80F040F064
:100EF0002000400902D0306801E060E0706A95FA95
:100F0000A5F1B1FA81F101F01F0208FA02F10842DD
:100F1000E4D1206AB0F5803F05D17068A16820F463
:100F2000003008437060D4E908010843716821F477
:100F30007411084370609AFAAAF0B0FA80F047463C
:100F400049F82080FFF7D8FB044604E0FFF7D4FB04
:100F5000001B02281BD895FAA5F0B0FA80F040F0EB
:100F60002000400901D0306800E0706A95FAA5F1D0
:100F7000B1FA81F101F01F0107FA01F10842E5D051
:100F80001DE01EE0FFF7B8FB001B022802D903207A
:100F9000BDE8F88F97FAA7F0B0FA80F040F0200093
:100FA000400901D0306800E0706A97FAA7F1B1FA01
:100FB00081F101F01F0105FA01F10842E2D10020A0
:100FC000E6E70120E4E74FF0E0210428086903D0B8
:100FD00020F004000861704740F00400FAE710B503
:100FE000401EB0F1807F01D3012010BD4FF0E024FE
:100FF00060610F21601700F07CF90020A0610720DC
:101000002061002010BD704738B5044600680168B3
:10101000C268C1F3000102F4807221B11AB1E16B20
:1010200041F00101E1630168C1F34002416901F04F
:10103000010122B119B1E26B42F00402E2630268DD
:10104000C2F3800222B119B1E26B42F00202E26304
:101050000268C2F3C00222B119B1E16B41F008018C
:10106000E1630168C068C1F3401100F0200019B1CC
:1010700010B1204600F016FB20680168C068C1F37B
:10108000C01100F0800019B110B1204600F016FC2C
:1010900021680868CA68C0F3801002F04002012588
:1010A00068B162B1CA68204622F04002CA6094F872
:1010B0003910322910D080F8395000F016F9E06B61
:1010C000002808D0206801684068009084F83950F2
:1010D0002046FFF798FF38BD222180F83910ECE751
:1010E00070B5040004D094F83900002510B106E072
:1010F000012070BD84F83850204600F021F802200D
:1011000084F839002068C16821F40051C16020468C
:1011100000F01CFB2068016921F490410161206806
:10112000416921F02A0141612068C16841F4005100
:10113000C160E563012084F83900002070BD000023
:101140002DE9F04780460068474B0121474A0025BA
:10115000474C0226032786B04FF4806998422ED16F
:10116000A06940F00400A061A06900F004000490B0
:10117000A06940F48040A061A06900F48040049020
:10118000A06940F00100A061A069039700F0010090
:10119000049048020090CDE90161694692461046EC
:1011A000FFF7AAF9CDE9009569465046FFF7A4F983
:1011B0002520FFF7D3FA02220121252029E02D4B1B
:1011C000984228D1A06940F00400A061A06900F015
:1011D00004000490E06940F40030E061E0690397A6
:1011E00000F40030049004200090CDE901616946CC
:1011F00092461046FFF780F90820CDE900056946C0
:101200005046FFF779F92620FFF7A8FA0122114688
:101210002620FFF7AFFA1849D8F8000088421FD1FE
:10122000E06940F48020E061E06900F480200490EF
:10123000A06940F00800A061A069104C00F008000F
:10124000CDE90370CDE9009669462046FFF754F9D1
:10125000E014CDE90005694620460295FFF74CF9F8
:1012600006B0BDE8F08700000038014000080140EA
:10127000001002400044004000480040000C0140C3
:1012800090F83930012B01D0122B2BD131B32AB376
:1012900090F83830012B25D0012380F83830816256
:1012A0008285C2850021C16390F83920122A17D0A7
:1012B000222280F8392080F838100168CA6842F488
:1012C0008072CA6001684A6942F001024A6100689E
:1012D000C16841F02001C1600020704701207047C3
:1012E0003222E6E70220704770477047FEE7FEE7CC
:1012F00070470907090E002806DA00F00F0000F118
:10130000E02080F8141D704700F1E02080F8001400
:10131000704770472DE9F041404C414DDFF80481A2
:10132000207886B04FF40046E0B16088401C80B25F
:101330006080B0F5FA7F12D3002767806078E8B349
:10134000012857D002280AD1002231464046FFF733
:10135000CDF9012218212846FFF7C8F9677006B0B9
:10136000BDE8F081304A01202070916941F001010F
:101370009161916901F0010104912C494B6823F0BE
:10138000E06343F000734B60916941F008019161A3
:10139000916901F008010491916941F004019161A2
:1013A00091690190029048F2180401F004010320B1
:1013B0000094CDE903016946284600E012E0FFF7FA
:1013C0009BF86946474640460096FFF795F801228C
:1013D00021462846FFF78AF9012231463846FFF7B1
:1013E00085F9BCE7002210212846FFF77FF901228A
:1013F000082107E0002208212846FFF777F901229B
:1014000048F210012846FFF771F9012231464046A3
:10141000FFF76CF96078401C6070A0E702000020C4
:10142000000C014000080140001002400000014093
:1014300030B5104885B0816941F00401816180694F
:101440004FF4807400F0040004900120CDE90040C6
:101450000220094D039069462846FFF74DF8002207
:1014600021462846FFF742F900F064F800F0E2F860
:1014700005B030BD0010024000080140F0B52A4917
:10148000012503264A78294F0023294C4FF0020CEE
:10149000E12803D1042A01D24D7012E0012A04D0C0
:1014A000022A07D0032A09D00AE0E22808D181F8ED
:1014B00001C006E0E32803D14E7002E0E42817D013
:1014C0004B708A78002A1DD02268C72A02D90B7077
:1014D0008B7023602268B854521C2260EA2810D016
:1014E0000A78012A0FD0022A12D0032A14D019E058
:1014F000E1223A70E2227A70E322BA7026608D709F
:10150000E8E70D70F0BDEB280CD181F800C0F0BD0C
:10151000EC2807D10E70F0BDED2803D14FF4004048
:1015200020608B700B70F0BD10000020AC0200201A
:101530002000002070B50B4C094800252060257163
:10154000E580258165812573C82104F10D00FEF732
:101550006BFEA4F8D6500448C4F8D80070BD000053
:10156000E4E3E2E108010020EDECEBEA704710B59E
:10157000FFF7D0FEBDE81040FFF7C4B830B58FB01C
:1015800002240120049000941020059000254FF4BF
:101590006010CDE9085007946846FFF757FA00B18C
:1015A000FEE70AA90F2081E831004FF48060CDE901
:1015B0000D0502210AA8FFF70FF900B1FEE7FFF7BA
:1015C000CBF94FF47A71B0FBF1F0FFF708FD04207E
:1015D000FFF7F9FC00221146501EFFF7CBF80FB0C1
:1015E00030BD00000F4810B5016841F001010160F5
:1015F00041680D4A1140416001680C4A1140016088
:10160000016821F480210160416821F4FE014160FC
:101610004FF41F018160FFF7B1FF05494FF00060F3
:10162000086010BD001002400000FFF8FFFFF6FE4A
:1016300008ED00E070B50B4C0948002520602571CD
:10164000E580258165812573C82104F10D00FEF731
:10165000EBFDA4F8D6500448C4F8D80070BD0000D3
:10166000E4E3E2E12C000020EDECEBEA0B4910B5DD
:10167000094AC1E9002000208860C86008618861CB
:101680000C2048610846FFF72BFDBDE81040012201
:1016900003490248FFF7F4BD0038014074030020FD
:1016A0001A00002010B590F83910222903D03229F1
:1016B00001D0022010BD8168B1F5805F11D00169B1
:1016C000002901681FD0496801F07F03816A4A1C24
:1016D00082620B70C18D491E0904090CC18518D0A6
:1016E0002FE00269816A002A0268526805D0D2B2EE
:1016F0000A80816A491C8162ECE7C2F308020A8011
:10170000816A891CF7E74A68816A4B1C83620A7008
:10171000E0E70168CA6822F02002CA6090F8391038
:10172000322910D00168CA6822F48072CA60016848
:101730004A6922F001024A61012180F83910FFF75D
:10174000D3FD002010BD1221F7E700002DE9F04184
:10175000044600680169E26821F4405111430161C7
:10176000A16820690143606901432068C26841F2B1
:101770000C639A430A43C26020684169A26921F45C
:101780004071114341614C492068642632278842E8
:101790003CD1FFF7FFF800EBC00101EB00106168DE
:1017A0008900B0FBF1F5FFF7F5F800EBC00101EBA4
:1017B00000106168B8468900B0FBF1F0B0FBF6F0AC
:1017C0006FF01801484305EB800107EB0110B0FBF7
:1017D000F6F000F0F005FFF7DDF800EBC00101EBDB
:1017E000001061688900B0FBF1F0B0FBF6F005EB8A
:1017F0000015FFF7CFF800EBC00101EB00106168A6
:101800008900B0FBF1F7FFF7C5F83BE0FFF7AAF856
:1018100000EBC00101EB001061688900B0FBF1F53D
:10182000FFF7A0F800EBC00101EB00106168B846BB
:101830008900B0FBF1F0B0FBF6F06FF018014843FF
:1018400005EB800107EB0110B0FBF6F000F0F005AE
:10185000FFF788F800EBC00101EB00106168890018
:10186000B0FBF1F0B0FBF6F005EB0015FFF77AF8EE
:1018700000EBC00101EB001061688900B0FBF1F7DB
:10188000FFF770F800EBC00101EB00106168890000
:10189000B0FBF1F0B0FBF6F06FF01801484307EB36
:1018A000800108EB0110B0FBF6F0216800F00F009A
:1018B00028448860BDE8F0810038014090F8391074
:1018C000122903D0322901D0022070478168B1F576
:1018D000805F016A0BD04A1C02620268097851607D
:1018E000C18C491E0904090CC1840ED017E0098877
:1018F0000268C1F30801516001690029016A02D040
:10190000491C0162ECE7891CFBE70168CA6822F008
:101910008002CA600068C16841F04001C1600020D7
:10192000704700000D4810B500680068C04380068D
:1019300012D40B4800680B4C2070A068B0F5004F23
:101940000AD000224FF480710748FEF7CFFE2078BE
:10195000BDE81040FFF792BD10BD000074030020E9
:101960000438014018000020000801400A480068BF
:101970000068C04380060CD4084802680849064B3A
:10198000C868C83B1A54401CC860C72801D9002049
:10199000C8600148FFF738BBBC0400200444004085
:1019A000180000200A4910B5084AC1E900200020AB
:1019B00088600C22C860C1E904028861C8610846D9
:1019C000FFF78EFB002800D0FEE710BD0048004066
:1019D000B4030020FEE7704710B580EA0120002222
:1019E00041F221034FF6FF71040403D583EA40005E
:1019F00080B201E001EA4000521C92B2082AF3D3FF
:101A000010BD000004490A685206FCD5024AC1B262
:101A1000121D11607047000000480040FEF77AFE7A
:101A2000FEF7C4FCFFF704FD4FF4E1342046FFF756
:101A30001DFE2046FFF7B6FF13A0FEF7E9FB174D8A
:101A40000126174CDFF85C9043F20158002740460E
:101A5000FEF7E6FC48B1207880B10120FEF741FD99
:101A600080214846FEF73EFEF1E70FA0FEF7D0FBCF
:101A7000687B607008B12670EFE727700022802134
:101A80004846FEF733FEE2E77468697320757361B8
:101A9000727433207072696E740D0A0008010020A0
:101AA00000000020000801406765742064617461D3
:101AB0000D0A000000000000000000000102030405
:101AC000060708090000000001020304EC1A0008E0
:101AD000000000202C0000006C010008181B00080A
:101AE0002C000020340B00008801000800000000DA
:101AF000F40100000090D00300000000000000008E
:101B000000000000000000000000000000000000D5
:081B10000000000000000000CD
:0400000508000131BD
:00000001FF
